{
  "_format": "hh-sol-artifact-1",
  "contractName": "KuverseNFT",
  "sourceName": "contracts/KuverseNFT.sol",
  "abi": [
    {
      "inputs": [],
      "stateMutability": "nonpayable",
      "type": "constructor"
    },
    {
      "anonymous": false,
      "inputs": [
        {
          "indexed": true,
          "internalType": "address",
          "name": "owner",
          "type": "address"
        },
        {
          "indexed": true,
          "internalType": "address",
          "name": "approved",
          "type": "address"
        },
        {
          "indexed": true,
          "internalType": "uint256",
          "name": "tokenId",
          "type": "uint256"
        }
      ],
      "name": "Approval",
      "type": "event"
    },
    {
      "anonymous": false,
      "inputs": [
        {
          "indexed": true,
          "internalType": "address",
          "name": "owner",
          "type": "address"
        },
        {
          "indexed": true,
          "internalType": "address",
          "name": "operator",
          "type": "address"
        },
        {
          "indexed": false,
          "internalType": "bool",
          "name": "approved",
          "type": "bool"
        }
      ],
      "name": "ApprovalForAll",
      "type": "event"
    },
    {
      "anonymous": false,
      "inputs": [
        {
          "indexed": false,
          "internalType": "uint256",
          "name": "_fromTokenId",
          "type": "uint256"
        },
        {
          "indexed": false,
          "internalType": "uint256",
          "name": "_toTokenId",
          "type": "uint256"
        }
      ],
      "name": "BatchMetadataUpdate",
      "type": "event"
    },
    {
      "anonymous": false,
      "inputs": [
        {
          "indexed": false,
          "internalType": "uint256",
          "name": "_tokenId",
          "type": "uint256"
        }
      ],
      "name": "MetadataUpdate",
      "type": "event"
    },
    {
      "anonymous": false,
      "inputs": [
        {
          "indexed": true,
          "internalType": "address",
          "name": "previousOwner",
          "type": "address"
        },
        {
          "indexed": true,
          "internalType": "address",
          "name": "newOwner",
          "type": "address"
        }
      ],
      "name": "OwnershipTransferred",
      "type": "event"
    },
    {
      "anonymous": false,
      "inputs": [
        {
          "indexed": true,
          "internalType": "address",
          "name": "from",
          "type": "address"
        },
        {
          "indexed": true,
          "internalType": "address",
          "name": "to",
          "type": "address"
        },
        {
          "indexed": true,
          "internalType": "uint256",
          "name": "tokenId",
          "type": "uint256"
        }
      ],
      "name": "Transfer",
      "type": "event"
    },
    {
      "inputs": [
        {
          "internalType": "address",
          "name": "to",
          "type": "address"
        },
        {
          "internalType": "uint256",
          "name": "tokenId",
          "type": "uint256"
        }
      ],
      "name": "approve",
      "outputs": [],
      "stateMutability": "nonpayable",
      "type": "function"
    },
    {
      "inputs": [
        {
          "internalType": "address",
          "name": "owner",
          "type": "address"
        }
      ],
      "name": "balanceOf",
      "outputs": [
        {
          "internalType": "uint256",
          "name": "",
          "type": "uint256"
        }
      ],
      "stateMutability": "view",
      "type": "function"
    },
    {
      "inputs": [
        {
          "internalType": "uint256",
          "name": "tokenId",
          "type": "uint256"
        }
      ],
      "name": "getApproved",
      "outputs": [
        {
          "internalType": "address",
          "name": "",
          "type": "address"
        }
      ],
      "stateMutability": "view",
      "type": "function"
    },
    {
      "inputs": [
        {
          "internalType": "uint256",
          "name": "tokenId",
          "type": "uint256"
        }
      ],
      "name": "getMetadata",
      "outputs": [
        {
          "internalType": "string",
          "name": "",
          "type": "string"
        },
        {
          "internalType": "string",
          "name": "",
          "type": "string"
        },
        {
          "internalType": "string",
          "name": "",
          "type": "string"
        }
      ],
      "stateMutability": "view",
      "type": "function"
    },
    {
      "inputs": [
        {
          "internalType": "address",
          "name": "owner",
          "type": "address"
        }
      ],
      "name": "getOwnedTokens",
      "outputs": [
        {
          "internalType": "uint256[]",
          "name": "",
          "type": "uint256[]"
        }
      ],
      "stateMutability": "view",
      "type": "function"
    },
    {
      "inputs": [
        {
          "internalType": "address",
          "name": "owner",
          "type": "address"
        },
        {
          "internalType": "address",
          "name": "operator",
          "type": "address"
        }
      ],
      "name": "isApprovedForAll",
      "outputs": [
        {
          "internalType": "bool",
          "name": "",
          "type": "bool"
        }
      ],
      "stateMutability": "view",
      "type": "function"
    },
    {
      "inputs": [
        {
          "internalType": "string",
          "name": "_name",
          "type": "string"
        },
        {
          "internalType": "string",
          "name": "_description",
          "type": "string"
        },
        {
          "internalType": "string",
          "name": "_rarity",
          "type": "string"
        },
        {
          "internalType": "string",
          "name": "tokenURI",
          "type": "string"
        }
      ],
      "name": "mintNFT",
      "outputs": [],
      "stateMutability": "nonpayable",
      "type": "function"
    },
    {
      "inputs": [],
      "name": "name",
      "outputs": [
        {
          "internalType": "string",
          "name": "",
          "type": "string"
        }
      ],
      "stateMutability": "view",
      "type": "function"
    },
    {
      "inputs": [],
      "name": "owner",
      "outputs": [
        {
          "internalType": "address",
          "name": "",
          "type": "address"
        }
      ],
      "stateMutability": "view",
      "type": "function"
    },
    {
      "inputs": [
        {
          "internalType": "uint256",
          "name": "tokenId",
          "type": "uint256"
        }
      ],
      "name": "ownerOf",
      "outputs": [
        {
          "internalType": "address",
          "name": "",
          "type": "address"
        }
      ],
      "stateMutability": "view",
      "type": "function"
    },
    {
      "inputs": [],
      "name": "renounceOwnership",
      "outputs": [],
      "stateMutability": "nonpayable",
      "type": "function"
    },
    {
      "inputs": [
        {
          "internalType": "address",
          "name": "from",
          "type": "address"
        },
        {
          "internalType": "address",
          "name": "to",
          "type": "address"
        },
        {
          "internalType": "uint256",
          "name": "tokenId",
          "type": "uint256"
        }
      ],
      "name": "safeTransferFrom",
      "outputs": [],
      "stateMutability": "nonpayable",
      "type": "function"
    },
    {
      "inputs": [
        {
          "internalType": "address",
          "name": "from",
          "type": "address"
        },
        {
          "internalType": "address",
          "name": "to",
          "type": "address"
        },
        {
          "internalType": "uint256",
          "name": "tokenId",
          "type": "uint256"
        },
        {
          "internalType": "bytes",
          "name": "data",
          "type": "bytes"
        }
      ],
      "name": "safeTransferFrom",
      "outputs": [],
      "stateMutability": "nonpayable",
      "type": "function"
    },
    {
      "inputs": [
        {
          "internalType": "address",
          "name": "operator",
          "type": "address"
        },
        {
          "internalType": "bool",
          "name": "approved",
          "type": "bool"
        }
      ],
      "name": "setApprovalForAll",
      "outputs": [],
      "stateMutability": "nonpayable",
      "type": "function"
    },
    {
      "inputs": [
        {
          "internalType": "bytes4",
          "name": "interfaceId",
          "type": "bytes4"
        }
      ],
      "name": "supportsInterface",
      "outputs": [
        {
          "internalType": "bool",
          "name": "",
          "type": "bool"
        }
      ],
      "stateMutability": "view",
      "type": "function"
    },
    {
      "inputs": [],
      "name": "symbol",
      "outputs": [
        {
          "internalType": "string",
          "name": "",
          "type": "string"
        }
      ],
      "stateMutability": "view",
      "type": "function"
    },
    {
      "inputs": [],
      "name": "tokenCounter",
      "outputs": [
        {
          "internalType": "uint256",
          "name": "",
          "type": "uint256"
        }
      ],
      "stateMutability": "view",
      "type": "function"
    },
    {
      "inputs": [
        {
          "internalType": "uint256",
          "name": "tokenId",
          "type": "uint256"
        }
      ],
      "name": "tokenURI",
      "outputs": [
        {
          "internalType": "string",
          "name": "",
          "type": "string"
        }
      ],
      "stateMutability": "view",
      "type": "function"
    },
    {
      "inputs": [
        {
          "internalType": "address",
          "name": "from",
          "type": "address"
        },
        {
          "internalType": "address",
          "name": "to",
          "type": "address"
        },
        {
          "internalType": "uint256",
          "name": "tokenId",
          "type": "uint256"
        }
      ],
      "name": "transferFrom",
      "outputs": [],
      "stateMutability": "nonpayable",
      "type": "function"
    },
    {
      "inputs": [
        {
          "internalType": "address",
          "name": "newOwner",
          "type": "address"
        }
      ],
      "name": "transferOwnership",
      "outputs": [],
      "stateMutability": "nonpayable",
      "type": "function"
    }
  ],
  "bytecode": "0x60806040523480156200001157600080fd5b506040518060400160405280600a81526020017f4b7576657273654e4654000000000000000000000000000000000000000000008152506040518060400160405280600481526020017f4b4e46540000000000000000000000000000000000000000000000000000000081525081600090816200008f91906200041a565b508060019081620000a191906200041a565b505050620000c4620000b8620000d260201b60201c565b620000da60201b60201c565b600060088190555062000501565b600033905090565b6000600760009054906101000a900473ffffffffffffffffffffffffffffffffffffffff16905081600760006101000a81548173ffffffffffffffffffffffffffffffffffffffff021916908373ffffffffffffffffffffffffffffffffffffffff1602179055508173ffffffffffffffffffffffffffffffffffffffff168173ffffffffffffffffffffffffffffffffffffffff167f8be0079c531659141344cd1fd0a4f28419497f9722a3daafe3b4186f6b6457e060405160405180910390a35050565b600081519050919050565b7f4e487b7100000000000000000000000000000000000000000000000000000000600052604160045260246000fd5b7f4e487b7100000000000000000000000000000000000000000000000000000000600052602260045260246000fd5b600060028204905060018216806200022257607f821691505b602082108103620002385762000237620001da565b5b50919050565b60008190508160005260206000209050919050565b60006020601f8301049050919050565b600082821b905092915050565b600060088302620002a27fffffffffffffffffffffffffffffffffffffffffffffffffffffffffffffffff8262000263565b620002ae868362000263565b95508019841693508086168417925050509392505050565b6000819050919050565b6000819050919050565b6000620002fb620002f5620002ef84620002c6565b620002d0565b620002c6565b9050919050565b6000819050919050565b6200031783620002da565b6200032f620003268262000302565b84845462000270565b825550505050565b600090565b6200034662000337565b620003538184846200030c565b505050565b5b818110156200037b576200036f6000826200033c565b60018101905062000359565b5050565b601f821115620003ca5762000394816200023e565b6200039f8462000253565b81016020851015620003af578190505b620003c7620003be8562000253565b83018262000358565b50505b505050565b600082821c905092915050565b6000620003ef60001984600802620003cf565b1980831691505092915050565b60006200040a8383620003dc565b9150826002028217905092915050565b6200042582620001a0565b67ffffffffffffffff811115620004415762000440620001ab565b5b6200044d825462000209565b6200045a8282856200037f565b600060209050601f8311600181146200049257600084156200047d578287015190505b620004898582620003fc565b865550620004f9565b601f198416620004a2866200023e565b60005b82811015620004cc57848901518255600182019150602085019450602081019050620004a5565b86831015620004ec5784890151620004e8601f891682620003dc565b8355505b6001600288020188555050505b505050505050565b6135a580620005116000396000f3fe608060405234801561001057600080fd5b506004361061012c5760003560e01c806395d89b41116100ad578063d082e38111610071578063d082e38114610343578063d9d6165514610361578063e985e9c514610391578063eec90571146103c1578063f2fde38b146103dd5761012c565b806395d89b411461028b578063a22cb465146102a9578063a574cea4146102c5578063b88d4fde146102f7578063c87b56dd146103135761012c565b806342842e0e116100f457806342842e0e146101e75780636352211e1461020357806370a0823114610233578063715018a6146102635780638da5cb5b1461026d5761012c565b806301ffc9a71461013157806306fdde0314610161578063081812fc1461017f578063095ea7b3146101af57806323b872dd146101cb575b600080fd5b61014b600480360381019061014691906120dd565b6103f9565b6040516101589190612125565b60405180910390f35b61016961045a565b60405161017691906121d0565b60405180910390f35b61019960048036038101906101949190612228565b6104ec565b6040516101a69190612296565b60405180910390f35b6101c960048036038101906101c491906122dd565b610532565b005b6101e560048036038101906101e0919061231d565b610649565b005b61020160048036038101906101fc919061231d565b6106a9565b005b61021d60048036038101906102189190612228565b6106c9565b60405161022a9190612296565b60405180910390f35b61024d60048036038101906102489190612370565b61074f565b60405161025a91906123ac565b60405180910390f35b61026b610806565b005b61027561081a565b6040516102829190612296565b60405180910390f35b610293610844565b6040516102a091906121d0565b60405180910390f35b6102c360048036038101906102be91906123f3565b6108d6565b005b6102df60048036038101906102da9190612228565b6108ec565b6040516102ee93929190612433565b60405180910390f35b610311600480360381019061030c91906125b4565b610b2e565b005b61032d60048036038101906103289190612228565b610b90565b60405161033a91906121d0565b60405180910390f35b61034b610ca2565b60405161035891906123ac565b60405180910390f35b61037b60048036038101906103769190612370565b610ca8565b60405161038891906126f5565b60405180910390f35b6103ab60048036038101906103a69190612717565b610dad565b6040516103b89190612125565b60405180910390f35b6103db60048036038101906103d691906127f8565b610e41565b005b6103f760048036038101906103f29190612370565b610eee565b005b6000634906490660e01b7bffffffffffffffffffffffffffffffffffffffffffffffffffffffff1916827bffffffffffffffffffffffffffffffffffffffffffffffffffffffff19161480610453575061045282610f71565b5b9050919050565b606060008054610469906128fe565b80601f0160208091040260200160405190810160405280929190818152602001828054610495906128fe565b80156104e25780601f106104b7576101008083540402835291602001916104e2565b820191906000526020600020905b8154815290600101906020018083116104c557829003601f168201915b5050505050905090565b60006104f782611053565b6004600083815260200190815260200160002060009054906101000a900473ffffffffffffffffffffffffffffffffffffffff169050919050565b600061053d826106c9565b90508073ffffffffffffffffffffffffffffffffffffffff168373ffffffffffffffffffffffffffffffffffffffff16036105ad576040517f08c379a00000000000000000000000000000000000000000000000000000000081526004016105a4906129a1565b60405180910390fd5b8073ffffffffffffffffffffffffffffffffffffffff166105cc61109e565b73ffffffffffffffffffffffffffffffffffffffff1614806105fb57506105fa816105f561109e565b610dad565b5b61063a576040517f08c379a000000000000000000000000000000000000000000000000000000000815260040161063190612a33565b60405180910390fd5b61064483836110a6565b505050565b61065a61065461109e565b8261115f565b610699576040517f08c379a000000000000000000000000000000000000000000000000000000000815260040161069090612ac5565b60405180910390fd5b6106a48383836111f4565b505050565b6106c483838360405180602001604052806000815250610b2e565b505050565b6000806106d5836114ed565b9050600073ffffffffffffffffffffffffffffffffffffffff168173ffffffffffffffffffffffffffffffffffffffff1603610746576040517f08c379a000000000000000000000000000000000000000000000000000000000815260040161073d90612b31565b60405180910390fd5b80915050919050565b60008073ffffffffffffffffffffffffffffffffffffffff168273ffffffffffffffffffffffffffffffffffffffff16036107bf576040517f08c379a00000000000000000000000000000000000000000000000000000000081526004016107b690612bc3565b60405180910390fd5b600360008373ffffffffffffffffffffffffffffffffffffffff1673ffffffffffffffffffffffffffffffffffffffff168152602001908152602001600020549050919050565b61080e61152a565b61081860006115a8565b565b6000600760009054906101000a900473ffffffffffffffffffffffffffffffffffffffff16905090565b606060018054610853906128fe565b80601f016020809104026020016040519081016040528092919081815260200182805461087f906128fe565b80156108cc5780601f106108a1576101008083540402835291602001916108cc565b820191906000526020600020905b8154815290600101906020018083116108af57829003601f168201915b5050505050905090565b6108e86108e161109e565b838361166e565b5050565b60608060606108fa846117da565b610939576040517f08c379a000000000000000000000000000000000000000000000000000000000815260040161093090612c2f565b60405180910390fd5b600060096000868152602001908152602001600020604051806060016040529081600082018054610969906128fe565b80601f0160208091040260200160405190810160405280929190818152602001828054610995906128fe565b80156109e25780601f106109b7576101008083540402835291602001916109e2565b820191906000526020600020905b8154815290600101906020018083116109c557829003601f168201915b505050505081526020016001820180546109fb906128fe565b80601f0160208091040260200160405190810160405280929190818152602001828054610a27906128fe565b8015610a745780601f10610a4957610100808354040283529160200191610a74565b820191906000526020600020905b815481529060010190602001808311610a5757829003601f168201915b50505050508152602001600282018054610a8d906128fe565b80601f0160208091040260200160405190810160405280929190818152602001828054610ab9906128fe565b8015610b065780601f10610adb57610100808354040283529160200191610b06565b820191906000526020600020905b815481529060010190602001808311610ae957829003601f168201915b5050505050815250509050806000015181602001518260400151935093509350509193909250565b610b3f610b3961109e565b8361115f565b610b7e576040517f08c379a0000000000000000000000000000000000000000000000000000000008152600401610b7590612ac5565b60405180910390fd5b610b8a8484848461181b565b50505050565b6060610b9b82611053565b6000600660008481526020019081526020016000208054610bbb906128fe565b80601f0160208091040260200160405190810160405280929190818152602001828054610be7906128fe565b8015610c345780601f10610c0957610100808354040283529160200191610c34565b820191906000526020600020905b815481529060010190602001808311610c1757829003601f168201915b505050505090506000610c45611877565b90506000815103610c5a578192505050610c9d565b600082511115610c8f578082604051602001610c77929190612c8b565b60405160208183030381529060405292505050610c9d565b610c988461188e565b925050505b919050565b60085481565b60606000610cb58361074f565b905060008167ffffffffffffffff811115610cd357610cd2612489565b5b604051908082528060200260200182016040528015610d015781602001602082028036833780820191505090505b5090506000805b600854811015610da157610d1b816117da565b8015610d5a57508573ffffffffffffffffffffffffffffffffffffffff16610d42826106c9565b73ffffffffffffffffffffffffffffffffffffffff16145b15610d8e5780838381518110610d7357610d72612caf565b5b6020026020010181815250508180610d8a90612d0d565b9250505b8080610d9990612d0d565b915050610d08565b50819350505050919050565b6000600560008473ffffffffffffffffffffffffffffffffffffffff1673ffffffffffffffffffffffffffffffffffffffff16815260200190815260200160002060008373ffffffffffffffffffffffffffffffffffffffff1673ffffffffffffffffffffffffffffffffffffffff16815260200190815260200160002060009054906101000a900460ff16905092915050565b60006008549050610e5233826118f6565b610e5c8183611914565b604051806060016040528086815260200185815260200184815250600960008381526020019081526020016000206000820151816000019081610e9f9190612f01565b506020820151816001019081610eb59190612f01565b506040820151816002019081610ecb9190612f01565b5090505060086000815480929190610ee290612d0d565b91905055505050505050565b610ef661152a565b600073ffffffffffffffffffffffffffffffffffffffff168173ffffffffffffffffffffffffffffffffffffffff1603610f65576040517f08c379a0000000000000000000000000000000000000000000000000000000008152600401610f5c90613045565b60405180910390fd5b610f6e816115a8565b50565b60007f80ac58cd000000000000000000000000000000000000000000000000000000007bffffffffffffffffffffffffffffffffffffffffffffffffffffffff1916827bffffffffffffffffffffffffffffffffffffffffffffffffffffffff1916148061103c57507f5b5e139f000000000000000000000000000000000000000000000000000000007bffffffffffffffffffffffffffffffffffffffffffffffffffffffff1916827bffffffffffffffffffffffffffffffffffffffffffffffffffffffff1916145b8061104c575061104b826119b8565b5b9050919050565b61105c816117da565b61109b576040517f08c379a000000000000000000000000000000000000000000000000000000000815260040161109290612b31565b60405180910390fd5b50565b600033905090565b816004600083815260200190815260200160002060006101000a81548173ffffffffffffffffffffffffffffffffffffffff021916908373ffffffffffffffffffffffffffffffffffffffff160217905550808273ffffffffffffffffffffffffffffffffffffffff16611119836106c9565b73ffffffffffffffffffffffffffffffffffffffff167f8c5be1e5ebec7d5bd14f71427d1e84f3dd0314c0f7b2291e5b200ac8c7c3b92560405160405180910390a45050565b60008061116b836106c9565b90508073ffffffffffffffffffffffffffffffffffffffff168473ffffffffffffffffffffffffffffffffffffffff1614806111ad57506111ac8185610dad565b5b806111eb57508373ffffffffffffffffffffffffffffffffffffffff166111d3846104ec565b73ffffffffffffffffffffffffffffffffffffffff16145b91505092915050565b8273ffffffffffffffffffffffffffffffffffffffff16611214826106c9565b73ffffffffffffffffffffffffffffffffffffffff161461126a576040517f08c379a0000000000000000000000000000000000000000000000000000000008152600401611261906130d7565b60405180910390fd5b600073ffffffffffffffffffffffffffffffffffffffff168273ffffffffffffffffffffffffffffffffffffffff16036112d9576040517f08c379a00000000000000000000000000000000000000000000000000000000081526004016112d090613169565b60405180910390fd5b6112e68383836001611a22565b8273ffffffffffffffffffffffffffffffffffffffff16611306826106c9565b73ffffffffffffffffffffffffffffffffffffffff161461135c576040517f08c379a0000000000000000000000000000000000000000000000000000000008152600401611353906130d7565b60405180910390fd5b6004600082815260200190815260200160002060006101000a81549073ffffffffffffffffffffffffffffffffffffffff02191690556001600360008573ffffffffffffffffffffffffffffffffffffffff1673ffffffffffffffffffffffffffffffffffffffff168152602001908152602001600020600082825403925050819055506001600360008473ffffffffffffffffffffffffffffffffffffffff1673ffffffffffffffffffffffffffffffffffffffff16815260200190815260200160002060008282540192505081905550816002600083815260200190815260200160002060006101000a81548173ffffffffffffffffffffffffffffffffffffffff021916908373ffffffffffffffffffffffffffffffffffffffff160217905550808273ffffffffffffffffffffffffffffffffffffffff168473ffffffffffffffffffffffffffffffffffffffff167fddf252ad1be2c89b69c2b068fc378daa952ba7f163c4a11628f55a4df523b3ef60405160405180910390a46114e88383836001611a28565b505050565b60006002600083815260200190815260200160002060009054906101000a900473ffffffffffffffffffffffffffffffffffffffff169050919050565b61153261109e565b73ffffffffffffffffffffffffffffffffffffffff1661155061081a565b73ffffffffffffffffffffffffffffffffffffffff16146115a6576040517f08c379a000000000000000000000000000000000000000000000000000000000815260040161159d906131d5565b60405180910390fd5b565b6000600760009054906101000a900473ffffffffffffffffffffffffffffffffffffffff16905081600760006101000a81548173ffffffffffffffffffffffffffffffffffffffff021916908373ffffffffffffffffffffffffffffffffffffffff1602179055508173ffffffffffffffffffffffffffffffffffffffff168173ffffffffffffffffffffffffffffffffffffffff167f8be0079c531659141344cd1fd0a4f28419497f9722a3daafe3b4186f6b6457e060405160405180910390a35050565b8173ffffffffffffffffffffffffffffffffffffffff168373ffffffffffffffffffffffffffffffffffffffff16036116dc576040517f08c379a00000000000000000000000000000000000000000000000000000000081526004016116d390613241565b60405180910390fd5b80600560008573ffffffffffffffffffffffffffffffffffffffff1673ffffffffffffffffffffffffffffffffffffffff16815260200190815260200160002060008473ffffffffffffffffffffffffffffffffffffffff1673ffffffffffffffffffffffffffffffffffffffff16815260200190815260200160002060006101000a81548160ff0219169083151502179055508173ffffffffffffffffffffffffffffffffffffffff168373ffffffffffffffffffffffffffffffffffffffff167f17307eab39ab6107e8899845ad3d59bd9653f200f220920489ca2b5937696c31836040516117cd9190612125565b60405180910390a3505050565b60008073ffffffffffffffffffffffffffffffffffffffff166117fc836114ed565b73ffffffffffffffffffffffffffffffffffffffff1614159050919050565b6118268484846111f4565b61183284848484611a2e565b611871576040517f08c379a0000000000000000000000000000000000000000000000000000000008152600401611868906132d3565b60405180910390fd5b50505050565b606060405180602001604052806000815250905090565b606061189982611053565b60006118a3611877565b905060008151116118c357604051806020016040528060008152506118ee565b806118cd84611bb5565b6040516020016118de929190612c8b565b6040516020818303038152906040525b915050919050565b611910828260405180602001604052806000815250611c83565b5050565b61191d826117da565b61195c576040517f08c379a000000000000000000000000000000000000000000000000000000000815260040161195390613365565b60405180910390fd5b8060066000848152602001908152602001600020908161197c9190612f01565b507ff8e1a15aba9398e019f0b49df1a4fde98ee17ae345cb5f6b5e2c27f5033e8ce7826040516119ac91906123ac565b60405180910390a15050565b60007f01ffc9a7000000000000000000000000000000000000000000000000000000007bffffffffffffffffffffffffffffffffffffffffffffffffffffffff1916827bffffffffffffffffffffffffffffffffffffffffffffffffffffffff1916149050919050565b50505050565b50505050565b6000611a4f8473ffffffffffffffffffffffffffffffffffffffff16611cde565b15611ba8578373ffffffffffffffffffffffffffffffffffffffff1663150b7a02611a7861109e565b8786866040518563ffffffff1660e01b8152600401611a9a94939291906133da565b6020604051808303816000875af1925050508015611ad657506040513d601f19601f82011682018060405250810190611ad3919061343b565b60015b611b58573d8060008114611b06576040519150601f19603f3d011682016040523d82523d6000602084013e611b0b565b606091505b506000815103611b50576040517f08c379a0000000000000000000000000000000000000000000000000000000008152600401611b47906132d3565b60405180910390fd5b805181602001fd5b63150b7a0260e01b7bffffffffffffffffffffffffffffffffffffffffffffffffffffffff1916817bffffffffffffffffffffffffffffffffffffffffffffffffffffffff191614915050611bad565b600190505b949350505050565b606060006001611bc484611d01565b01905060008167ffffffffffffffff811115611be357611be2612489565b5b6040519080825280601f01601f191660200182016040528015611c155781602001600182028036833780820191505090505b509050600082602001820190505b600115611c78578080600190039150507f3031323334353637383961626364656600000000000000000000000000000000600a86061a8153600a8581611c6c57611c6b613468565b5b04945060008503611c23575b819350505050919050565b611c8d8383611e54565b611c9a6000848484611a2e565b611cd9576040517f08c379a0000000000000000000000000000000000000000000000000000000008152600401611cd0906132d3565b60405180910390fd5b505050565b6000808273ffffffffffffffffffffffffffffffffffffffff163b119050919050565b600080600090507a184f03e93ff9f4daa797ed6e38ed64bf6a1f0100000000000000008310611d5f577a184f03e93ff9f4daa797ed6e38ed64bf6a1f0100000000000000008381611d5557611d54613468565b5b0492506040810190505b6d04ee2d6d415b85acef81000000008310611d9c576d04ee2d6d415b85acef81000000008381611d9257611d91613468565b5b0492506020810190505b662386f26fc100008310611dcb57662386f26fc100008381611dc157611dc0613468565b5b0492506010810190505b6305f5e1008310611df4576305f5e1008381611dea57611de9613468565b5b0492506008810190505b6127108310611e19576127108381611e0f57611e0e613468565b5b0492506004810190505b60648310611e3c5760648381611e3257611e31613468565b5b0492506002810190505b600a8310611e4b576001810190505b80915050919050565b600073ffffffffffffffffffffffffffffffffffffffff168273ffffffffffffffffffffffffffffffffffffffff1603611ec3576040517f08c379a0000000000000000000000000000000000000000000000000000000008152600401611eba906134e3565b60405180910390fd5b611ecc816117da565b15611f0c576040517f08c379a0000000000000000000000000000000000000000000000000000000008152600401611f039061354f565b60405180910390fd5b611f1a600083836001611a22565b611f23816117da565b15611f63576040517f08c379a0000000000000000000000000000000000000000000000000000000008152600401611f5a9061354f565b60405180910390fd5b6001600360008473ffffffffffffffffffffffffffffffffffffffff1673ffffffffffffffffffffffffffffffffffffffff16815260200190815260200160002060008282540192505081905550816002600083815260200190815260200160002060006101000a81548173ffffffffffffffffffffffffffffffffffffffff021916908373ffffffffffffffffffffffffffffffffffffffff160217905550808273ffffffffffffffffffffffffffffffffffffffff16600073ffffffffffffffffffffffffffffffffffffffff167fddf252ad1be2c89b69c2b068fc378daa952ba7f163c4a11628f55a4df523b3ef60405160405180910390a461206d600083836001611a28565b5050565b6000604051905090565b600080fd5b600080fd5b60007fffffffff0000000000000000000000000000000000000000000000000000000082169050919050565b6120ba81612085565b81146120c557600080fd5b50565b6000813590506120d7816120b1565b92915050565b6000602082840312156120f3576120f261207b565b5b6000612101848285016120c8565b91505092915050565b60008115159050919050565b61211f8161210a565b82525050565b600060208201905061213a6000830184612116565b92915050565b600081519050919050565b600082825260208201905092915050565b60005b8381101561217a57808201518184015260208101905061215f565b60008484015250505050565b6000601f19601f8301169050919050565b60006121a282612140565b6121ac818561214b565b93506121bc81856020860161215c565b6121c581612186565b840191505092915050565b600060208201905081810360008301526121ea8184612197565b905092915050565b6000819050919050565b612205816121f2565b811461221057600080fd5b50565b600081359050612222816121fc565b92915050565b60006020828403121561223e5761223d61207b565b5b600061224c84828501612213565b91505092915050565b600073ffffffffffffffffffffffffffffffffffffffff82169050919050565b600061228082612255565b9050919050565b61229081612275565b82525050565b60006020820190506122ab6000830184612287565b92915050565b6122ba81612275565b81146122c557600080fd5b50565b6000813590506122d7816122b1565b92915050565b600080604083850312156122f4576122f361207b565b5b6000612302858286016122c8565b925050602061231385828601612213565b9150509250929050565b6000806000606084860312156123365761233561207b565b5b6000612344868287016122c8565b9350506020612355868287016122c8565b925050604061236686828701612213565b9150509250925092565b6000602082840312156123865761238561207b565b5b6000612394848285016122c8565b91505092915050565b6123a6816121f2565b82525050565b60006020820190506123c1600083018461239d565b92915050565b6123d08161210a565b81146123db57600080fd5b50565b6000813590506123ed816123c7565b92915050565b6000806040838503121561240a5761240961207b565b5b6000612418858286016122c8565b9250506020612429858286016123de565b9150509250929050565b6000606082019050818103600083015261244d8186612197565b905081810360208301526124618185612197565b905081810360408301526124758184612197565b9050949350505050565b600080fd5b600080fd5b7f4e487b7100000000000000000000000000000000000000000000000000000000600052604160045260246000fd5b6124c182612186565b810181811067ffffffffffffffff821117156124e0576124df612489565b5b80604052505050565b60006124f3612071565b90506124ff82826124b8565b919050565b600067ffffffffffffffff82111561251f5761251e612489565b5b61252882612186565b9050602081019050919050565b82818337600083830152505050565b600061255761255284612504565b6124e9565b90508281526020810184848401111561257357612572612484565b5b61257e848285612535565b509392505050565b600082601f83011261259b5761259a61247f565b5b81356125ab848260208601612544565b91505092915050565b600080600080608085870312156125ce576125cd61207b565b5b60006125dc878288016122c8565b94505060206125ed878288016122c8565b93505060406125fe87828801612213565b925050606085013567ffffffffffffffff81111561261f5761261e612080565b5b61262b87828801612586565b91505092959194509250565b600081519050919050565b600082825260208201905092915050565b6000819050602082019050919050565b61266c816121f2565b82525050565b600061267e8383612663565b60208301905092915050565b6000602082019050919050565b60006126a282612637565b6126ac8185612642565b93506126b783612653565b8060005b838110156126e85781516126cf8882612672565b97506126da8361268a565b9250506001810190506126bb565b5085935050505092915050565b6000602082019050818103600083015261270f8184612697565b905092915050565b6000806040838503121561272e5761272d61207b565b5b600061273c858286016122c8565b925050602061274d858286016122c8565b9150509250929050565b600067ffffffffffffffff82111561277257612771612489565b5b61277b82612186565b9050602081019050919050565b600061279b61279684612757565b6124e9565b9050828152602081018484840111156127b7576127b6612484565b5b6127c2848285612535565b509392505050565b600082601f8301126127df576127de61247f565b5b81356127ef848260208601612788565b91505092915050565b600080600080608085870312156128125761281161207b565b5b600085013567ffffffffffffffff8111156128305761282f612080565b5b61283c878288016127ca565b945050602085013567ffffffffffffffff81111561285d5761285c612080565b5b612869878288016127ca565b935050604085013567ffffffffffffffff81111561288a57612889612080565b5b612896878288016127ca565b925050606085013567ffffffffffffffff8111156128b7576128b6612080565b5b6128c3878288016127ca565b91505092959194509250565b7f4e487b7100000000000000000000000000000000000000000000000000000000600052602260045260246000fd5b6000600282049050600182168061291657607f821691505b602082108103612929576129286128cf565b5b50919050565b7f4552433732313a20617070726f76616c20746f2063757272656e74206f776e6560008201527f7200000000000000000000000000000000000000000000000000000000000000602082015250565b600061298b60218361214b565b91506129968261292f565b604082019050919050565b600060208201905081810360008301526129ba8161297e565b9050919050565b7f4552433732313a20617070726f76652063616c6c6572206973206e6f7420746f60008201527f6b656e206f776e6572206f7220617070726f76656420666f7220616c6c000000602082015250565b6000612a1d603d8361214b565b9150612a28826129c1565b604082019050919050565b60006020820190508181036000830152612a4c81612a10565b9050919050565b7f4552433732313a2063616c6c6572206973206e6f7420746f6b656e206f776e6560008201527f72206f7220617070726f76656400000000000000000000000000000000000000602082015250565b6000612aaf602d8361214b565b9150612aba82612a53565b604082019050919050565b60006020820190508181036000830152612ade81612aa2565b9050919050565b7f4552433732313a20696e76616c696420746f6b656e2049440000000000000000600082015250565b6000612b1b60188361214b565b9150612b2682612ae5565b602082019050919050565b60006020820190508181036000830152612b4a81612b0e565b9050919050565b7f4552433732313a2061646472657373207a65726f206973206e6f74206120766160008201527f6c6964206f776e65720000000000000000000000000000000000000000000000602082015250565b6000612bad60298361214b565b9150612bb882612b51565b604082019050919050565b60006020820190508181036000830152612bdc81612ba0565b9050919050565b7f546f6b656e20646f6573206e6f74206578697374000000000000000000000000600082015250565b6000612c1960148361214b565b9150612c2482612be3565b602082019050919050565b60006020820190508181036000830152612c4881612c0c565b9050919050565b600081905092915050565b6000612c6582612140565b612c6f8185612c4f565b9350612c7f81856020860161215c565b80840191505092915050565b6000612c978285612c5a565b9150612ca38284612c5a565b91508190509392505050565b7f4e487b7100000000000000000000000000000000000000000000000000000000600052603260045260246000fd5b7f4e487b7100000000000000000000000000000000000000000000000000000000600052601160045260246000fd5b6000612d18826121f2565b91507fffffffffffffffffffffffffffffffffffffffffffffffffffffffffffffffff8203612d4a57612d49612cde565b5b600182019050919050565b60008190508160005260206000209050919050565b60006020601f8301049050919050565b600082821b905092915050565b600060088302612db77fffffffffffffffffffffffffffffffffffffffffffffffffffffffffffffffff82612d7a565b612dc18683612d7a565b95508019841693508086168417925050509392505050565b6000819050919050565b6000612dfe612df9612df4846121f2565b612dd9565b6121f2565b9050919050565b6000819050919050565b612e1883612de3565b612e2c612e2482612e05565b848454612d87565b825550505050565b600090565b612e41612e34565b612e4c818484612e0f565b505050565b5b81811015612e7057612e65600082612e39565b600181019050612e52565b5050565b601f821115612eb557612e8681612d55565b612e8f84612d6a565b81016020851015612e9e578190505b612eb2612eaa85612d6a565b830182612e51565b50505b505050565b600082821c905092915050565b6000612ed860001984600802612eba565b1980831691505092915050565b6000612ef18383612ec7565b9150826002028217905092915050565b612f0a82612140565b67ffffffffffffffff811115612f2357612f22612489565b5b612f2d82546128fe565b612f38828285612e74565b600060209050601f831160018114612f6b5760008415612f59578287015190505b612f638582612ee5565b865550612fcb565b601f198416612f7986612d55565b60005b82811015612fa157848901518255600182019150602085019450602081019050612f7c565b86831015612fbe5784890151612fba601f891682612ec7565b8355505b6001600288020188555050505b505050505050565b7f4f776e61626c653a206e6577206f776e657220697320746865207a65726f206160008201527f6464726573730000000000000000000000000000000000000000000000000000602082015250565b600061302f60268361214b565b915061303a82612fd3565b604082019050919050565b6000602082019050818103600083015261305e81613022565b9050919050565b7f4552433732313a207472616e736665722066726f6d20696e636f72726563742060008201527f6f776e6572000000000000000000000000000000000000000000000000000000602082015250565b60006130c160258361214b565b91506130cc82613065565b604082019050919050565b600060208201905081810360008301526130f0816130b4565b9050919050565b7f4552433732313a207472616e7366657220746f20746865207a65726f2061646460008201527f7265737300000000000000000000000000000000000000000000000000000000602082015250565b600061315360248361214b565b915061315e826130f7565b604082019050919050565b6000602082019050818103600083015261318281613146565b9050919050565b7f4f776e61626c653a2063616c6c6572206973206e6f7420746865206f776e6572600082015250565b60006131bf60208361214b565b91506131ca82613189565b602082019050919050565b600060208201905081810360008301526131ee816131b2565b9050919050565b7f4552433732313a20617070726f766520746f2063616c6c657200000000000000600082015250565b600061322b60198361214b565b9150613236826131f5565b602082019050919050565b6000602082019050818103600083015261325a8161321e565b9050919050565b7f4552433732313a207472616e7366657220746f206e6f6e20455243373231526560008201527f63656976657220696d706c656d656e7465720000000000000000000000000000602082015250565b60006132bd60328361214b565b91506132c882613261565b604082019050919050565b600060208201905081810360008301526132ec816132b0565b9050919050565b7f45524337323155524953746f726167653a2055524920736574206f66206e6f6e60008201527f6578697374656e7420746f6b656e000000000000000000000000000000000000602082015250565b600061334f602e8361214b565b915061335a826132f3565b604082019050919050565b6000602082019050818103600083015261337e81613342565b9050919050565b600081519050919050565b600082825260208201905092915050565b60006133ac82613385565b6133b68185613390565b93506133c681856020860161215c565b6133cf81612186565b840191505092915050565b60006080820190506133ef6000830187612287565b6133fc6020830186612287565b613409604083018561239d565b818103606083015261341b81846133a1565b905095945050505050565b600081519050613435816120b1565b92915050565b6000602082840312156134515761345061207b565b5b600061345f84828501613426565b91505092915050565b7f4e487b7100000000000000000000000000000000000000000000000000000000600052601260045260246000fd5b7f4552433732313a206d696e7420746f20746865207a65726f2061646472657373600082015250565b60006134cd60208361214b565b91506134d882613497565b602082019050919050565b600060208201905081810360008301526134fc816134c0565b9050919050565b7f4552433732313a20746f6b656e20616c7265616479206d696e74656400000000600082015250565b6000613539601c8361214b565b915061354482613503565b602082019050919050565b600060208201905081810360008301526135688161352c565b905091905056fea26469706673582212209e5db758f130afad476fadab690534314a7c1149483eef4298dda837fbaa7cf164736f6c63430008140033",
  "linkReferences": {},
  "deployedLinkReferences": {}
}